:020000040000FA
:0400000007EF00F016
:100008001F824CED01F073EF01F0000E0A6E08BE7E
:1000180012EF00F010EF00F01CEF00F0081E071EB2
:10002800061E056C000E062207220822010E0A6E23
:1000380004BE23EF00F021EF00F02DEF00F0041EC6
:10004800031E021E016C000E022203220422010E6E
:100058000A1A000E0B6E000E0C6E000E0D6E000ECE
:100068000E6E0550061007100810D8B43EEF00F0C9
:1000780040EF00F076EF00F0010E096E4AEF00F055
:10008800D8900536063607360836092A08AE4FEFE7
:1000980000F051EF00F044EF00F0D8900B360C362A
:1000A8000D360E360550015C0650025807500358AD
:1000B80008500458D8A063EF00F065EF00F06EEF29
:1000C80000F00550015E0650025A0750035A0850C6
:1000D800045A0B80D8900832073206320532092EAE
:1000E80051EF00F00A50D8B47CEF00F07EEF00F03A
:1000F80086EF00F00E1E0D1E0C1E0B6C000E0C225F
:100108000D220E220BC001F00CC002F00DC003F04E
:100118000EC004F01200800E0F6E250E106E000E39
:10012800116E000E126E14EC01F0000E8B6E000EB4
:10013800896E9390939293949396939892928A88C7
:1001480068EC01F07DEC01F01B6ED00E1B24196EDB
:100158001A6AFF0E1A228082D8EF00F08A808A92EB
:100168008A848A96A6EF00F08A908A828A948A8680
:10017800A6EF00F08A808A928A948A86A6EF00F019
:100188008A908A828A848A96A6EF00F09378A6EFEE
:1001980000F0CD7081B8D3EF00F0D5EF00F0A6EFF6
:1001A80000F08A88A6EF00F019C017F01AC018F0FE
:1001B8001850000AD8B4E3EF00F0A6EF00F017508B
:1001C800000AD8B4B2EF00F0010AD8B4B8EF00F0D2
:1001D800030AD8B4BEEF00F0010AD8B4C4EF00F0A7
:1001E800070AD8B4CAEF00F0010AD8B4CDEF00F07E
:1001F800030AD8B4A6EF00F0010AD8B4A6EF00F0BD
:100208000F0AD8B4A6EF00F0010AD8B4A6EF00F0A0
:10021800030AD8B4A6EF00F0A6EF00F007EF00F04D
:10022800949C948E0FC005F010C006F011C007F022
:1002380012C008F0000E016E120E026E7A0E036EE6
:10024800000E046E09EC00F001C013F002C014F0B7
:1002580003C015F004C016F013C001F014C002F07A
:1002680015C003F016C004F0400E056E000E066EB1
:10027800000E076E000E086E09EC00F00104AF6E68
:10028800AC94AC98AB8EAC9CAC8AAB9CAB8812009F
:1002980006009EA052EF01F054EF01F066EF01F066
:1002A8001C4A1D2A130E1C181D10D8A45EEF01F05D
:1002B80060EF01F065EF01F08A78000E1D6E000E08
:1002C8001C6E9E901F921100000ECE6ECECFCFFFF7
:1002D800CD9ACD989D80CD90F28CF28E12001E6A38
:1002E8001D6A1C6A1F901F92000EF86E00018FEFA6
:1002F80000F09EAA82EF01F084EF01F07DEF01F09B
:04030800AE501200E1
:020000040020DA
:08000000FFFFFFFFFFFFFFFF00
:020000040030CA
:0E00000000051F1FFF8385FF0FC00FE00F409C
:00000001FF
