:020000040000FA
:0400000034EF00F0E9
:06000800258228ED02F044
:100018002580D8CF04F0E8CF05F0E0CF06F09EA009
:1000280018EF00F01AEF00F02CEF00F0214A222A16
:10003800130E21182210D8A424EF00F026EF00F0A8
:100048002BEF00F08A78000E226E000E216E9E9033
:1000580006C0E0FF05C0E8FF04C0D8FF25901000E7
:100068005DEF02F00F0EC16E800E156E250E166E36
:10007800000E176E000E186EF0EC01F043EC02F063
:10008800000E8B6E000E896E929C939293949396B9
:1000980093989292F18E9380F292F2888A886AEC11
:1000A80002F0D08EF28EF28C24B05DEF00F05FEF9C
:1000B80000F058EF00F075EC02F0236ED00E232408
:1000C8001F6E206AFF0E2022AEEF00F0898C8A9204
:1000D8008A848A9658EF00F0899C8A828A948A8654
:1000E80058EF00F0898C8A928A948A8658EF00F03B
:1000F800899C8A828A848A9658EF00F0937858EF10
:1001080000F0CD7081B88BEF00F08DEF00F0E8EFD4
:1001180000F08A8858EF00F0000E72EC01F058EFFA
:1001280000F0010E72EC01F058EF00F0020E72ECD4
:1001380001F058EF00F0030E72EC01F058EF00F0F8
:10014800040E72EC01F058EF00F0000E72EC01F0B2
:1001580058EF00F01FC01DF020C01EF01E50000A0E
:10016800D8B4B9EF00F0A9EF00F01D50000AD8B4D8
:100178006AEF00F0010AD8B470EF00F0030AD8B4AF
:1001880076EF00F0010AD8B47CEF00F0070AD8B483
:1001980082EF00F0010AD8B485EF00F0030AD8B462
:1001A80090EF00F0010AD8B495EF00F00F0AD8B428
:1001B8009AEF00F0010AD8B49FEF00F0030AD8B410
:1001C800A4EF00F0A9EF00F058EF00F034EF00F0D2
:1001D800000E106E0EBEF5EF00F0F3EF00F0FFEF2B
:1001E80000F00E1E0D1E0C1E0B6C000E0C220D22B4
:1001F8000E22010E106E0ABE06EF01F004EF01F0A8
:1002080010EF01F00A1E091E081E076C000E0822D6
:1002180009220A22010E101A000E116E000E126E2B
:10022800000E136E000E146E0B500C100D100E10F5
:10023800D8B421EF01F023EF01F059EF01F0010EDE
:100248000F6E2DEF01F0D8900B360C360D360E36AA
:100258000F2A0EAE32EF01F034EF01F027EF01F074
:10026800D89011361236133614360B50075C0C50E2
:1002780008580D5009580E500A58D8A046EF01F0FA
:1002880048EF01F051EF01F00B50075E0C50085A8F
:100298000D50095A0E500A5A1180D8900E320D325C
:1002A8000C320B320F2E34EF01F01050D8B45FEF40
:1002B80001F061EF01F069EF01F0141E131E121E28
:1002C800116C000E12221322142211C007F012C062
:1002D80008F013C009F014C00AF01200096E8FEF7D
:1002E80001F0000EBE6EBD98BD9AB0EF01F01F0E72
:1002F800BE6EBD8878EF01F03E0EBE6EBD98BD8A19
:10030800B0EF01F05D0EBE6EBD8883EF01F07C0E8C
:10031800BE6E77EF01F00950076E086A0850000AB0
:10032800D8B499EF01F075EF01F00750000AD8B47E
:1003380075EF01F0010AD8B47BEF01F0030AD8B4D5
:1003480080EF01F0010AD8B486EF01F0070AD8B4AB
:100358008BEF01F075EF01F01200036ECEEF01F0A4
:10036800000EBE6EBD98BD9AEFEF01F01F0EBE6E77
:10037800BD88B7EF01F03E0EBE6EBD98BD8AEFEFA7
:1003880001F05D0EBE6EBD88C2EF01F07C0EBE6E40
:10039800B6EF01F00350016E026A0250000AD8B4A9
:1003A800D8EF01F0B4EF01F00150000AD8B4B4EF6F
:1003B80001F0010AD8B4BAEF01F0030AD8B4BFEFCC
:1003C80001F0010AD8B4C5EF01F0070AD8B4CAEFA2
:1003D80001F0B4EF01F01200949C948E15C00BF05C
:1003E80016C00CF017C00DF018C00EF0000E076E06
:1003F800120E086E7A0E096E000E0A6EECEC00F012
:1004080007C019F008C01AF009C01BF00AC01CF098
:1004180019C007F01AC008F01BC009F01CC00AF088
:10042800400E0B6E000E0C6E000E0D6E000E0E6E62
:10043800ECEC00F00704AF6EAC94AC98AB8EAC9CBF
:10044800AC8AAB9CAB8812000600F2A22EEF02F039
:1004580030EF02F041EF02F024B035EF02F037EF51
:1004680002F03FEF02F0000EB1EC01F09388CD905E
:10047800248040EF02F02490F29225921100948497
:100488007C0ECB6EBD9EBD9CBD86BD84BD92BD90CD
:10049800000EBE6EBD9ACA949E92CA82CA849EA25B
:1004A80058EF02F05AEF02F053EF02F09494B69E20
:1004B8001200246A236A226A216A206A1F6A259028
:1004C8002592000EF86E000136EF00F0000ECE6E99
:1004D800CECFCFFFCD9ACD989E909D809F80CD9016
:1004E80012009EAA7AEF02F07CEF02F075EF02F09C
:0404F800AE501200F0
:020000040020DA
:08000000FFFFFFFFFFFFFFFF00
:020000040030CA
:0E00000000051F1FFF8385FF0FC00FE00F409C
:00000001FF
