:020000040000FA
:0400000007EF00F016
:100008001F82ABED01F0E1EF01F0800E0F6E250EBF
:10001800106E000E116E000E126E73EC01F0C7EC3C
:1000280001F0000E8B6E000E896E9390939293945C
:100038009396939892928A88EEEC01F0F9EC01F08D
:100048001D6ED00E1D24196E1A6AFF0E1A228082A8
:1000580072EF00F08A808A928A848A9622EF00F0F2
:100068008A908A828A948A8622EF00F08A808A920D
:100078008A948A8622EF00F08A908A828A848A96F5
:1000880022EF00F0937822EF00F0CD7081B84FEFA7
:1000980000F051EF00F022EF00F08A8822EF00F024
:1000A800000E34EC01F022EF00F0010E34EC01F008
:1000B80022EF00F0020E34EC01F022EF00F0030E04
:1000C80034EC01F022EF00F0040E34EC01F022EFE2
:1000D80000F0000E34EC01F022EF00F019C017F028
:1000E8001AC018F01850000AD8B47DEF00F06DEF70
:1000F80000F01750000AD8B42EEF00F0010AD8B467
:1001080034EF00F0030AD8B43AEF00F0010AD8B48B
:1001180040EF00F0070AD8B446EF00F0010AD8B45F
:1001280049EF00F0030AD8B454EF00F0010AD8B43C
:1001380059EF00F00F0AD8B45EEF00F0010AD8B406
:1001480063EF00F0030AD8B468EF00F06DEF00F039
:1001580007EF00F0000E0A6E08BEB7EF00F0B5EF2B
:1001680000F0C1EF00F0081E071E061E056C000E09
:10017800062207220822010E0A6E04BEC8EF00F00C
:10018800C6EF00F0D2EF00F0041E031E021E016C41
:10019800000E022203220422010E0A1A000E0B6E20
:1001A800000E0C6E000E0D6E000E0E6E0550061041
:1001B80007100810D8B4E3EF00F0E5EF00F01BEFEC
:1001C80001F0010E096EEFEF00F0D8900536063603
:1001D80007360836092A08AEF4EF00F0F6EF00F00B
:1001E800E9EF00F0D8900B360C360D360E36055078
:1001F800015C065002580750035808500458D8A00C
:1002080008EF01F00AEF01F013EF01F00550015E6D
:100218000650025A0750035A0850045A0B80D890C7
:100228000832073206320532092EF6EF00F00A507E
:10023800D8B421EF01F023EF01F02BEF01F00E1EEF
:100248000D1E0C1E0B6C000E0C220D220E220BC074
:1002580001F00CC002F00DC003F00EC004F0120053
:10026800036E51EF01F0000EBE6EBD98BD9A72EF9D
:1002780001F01F0EBE6EBD883AEF01F03E0EBE6E55
:10028800BD98BD8A72EF01F05D0EBE6EBD8845EF68
:1002980001F07C0EBE6E39EF01F00350016E026A68
:1002A8000250000AD8B45BEF01F037EF01F00150BB
:1002B800000AD8B437EF01F0010AD8B43DEF01F0D5
:1002C800030AD8B442EF01F0010AD8B448EF01F0AC
:1002D800070AD8B44DEF01F037EF01F01200949CF3
:1002E800948E0FC005F010C006F011C007F012C0C0
:1002F80008F0000E016E120E026E7A0E036E000EEA
:10030800046EAEEC00F001C013F002C014F003C09C
:1003180015F004C016F013C001F014C002F015C0A7
:1003280003F016C004F0400E056E000E066E000EB7
:10033800076E000E086EAEEC00F00104AF6EAC94D0
:10034800AC98AB8EAC9CAC8AAB9CAB881200060018
:100358009EA0B1EF01F0B3EF01F0C5EF01F01B4A29
:100368001C2A130E1B181C10D8A4BDEF01F0BFEFF8
:1003780001F0C4EF01F08A78000E1C6E000E1B6EAF
:100388009E901F92110094847C0ECB6EBD9EBD9CE6
:10039800BD86BD84BD92BD90000EBE6EBD9ACA9446
:1003A8009E92CA82CA849EA2DCEF01F0DEEF01F0C1
:1003B800D7EF01F09494B69E12001E6A1D6A1C6A5B
:1003C8001B6A1A6A196A1F901F92000EF86E0001C4
:1003D80009EF00F0000ECE6ECECFCFFFCD9ACD98AC
:1003E8009D80CD90F28CF28E12009EAAFEEF01F055
:0C03F80000EF02F0F9EF01F0AE5012002F
:020000040020DA
:08000000FFFFFFFFFFFFFFFF00
:020000040030CA
:0E00000000051F1FFF8385FF0FC00FE00F409C
:00000001FF
